{
  "contractName": "Wallet",
  "abi": [
    {
      "inputs": [
        {
          "internalType": "address payable",
          "name": "_owner",
          "type": "address"
        }
      ],
      "stateMutability": "nonpayable",
      "type": "constructor"
    },
    {
      "inputs": [],
      "name": "getBalance",
      "outputs": [
        {
          "internalType": "uint256",
          "name": "",
          "type": "uint256"
        }
      ],
      "stateMutability": "view",
      "type": "function",
      "constant": true
    },
    {
      "inputs": [],
      "name": "deposit",
      "outputs": [],
      "stateMutability": "payable",
      "type": "function",
      "payable": true
    },
    {
      "inputs": [
        {
          "internalType": "uint256",
          "name": "_amount",
          "type": "uint256"
        }
      ],
      "name": "withdraw",
      "outputs": [],
      "stateMutability": "payable",
      "type": "function",
      "payable": true
    },
    {
      "inputs": [
        {
          "internalType": "address payable",
          "name": "_to",
          "type": "address"
        },
        {
          "internalType": "uint256",
          "name": "_amount",
          "type": "uint256"
        }
      ],
      "name": "sendMoney",
      "outputs": [],
      "stateMutability": "payable",
      "type": "function",
      "payable": true
    }
  ],
  "bytecode": "0x608060405234801561001057600080fd5b506040516102ef3803806102ef83398101604081905261002f91610054565b60008054600160a060020a031916600160a060020a0392909216919091179055610082565b600060208284031215610065578081fd5b8151600160a060020a038116811461007b578182fd5b9392505050565b61025e806100916000396000f3fe60806040526004361061005b577c0100000000000000000000000000000000000000000000000000000000600035046312065fe081146100605780632e1a7d4d1461008b578063d0e30db0146100a0578063ee4ae2c9146100a8575b600080fd5b34801561006c57600080fd5b506100756100bb565b604051610082919061021f565b60405180910390f35b61009e610099366004610207565b6100c0565b005b61009e610142565b61009e6100b63660046101c4565b610144565b303190565b60005473ffffffffffffffffffffffffffffffffffffffff1633146100e457600080fd5b806100ed6100bb565b10156100f857600080fd5b6000805460405173ffffffffffffffffffffffffffffffffffffffff9091169183156108fc02918491818181858888f1935050505015801561013e573d6000803e3d6000fd5b5050565b565b60005473ffffffffffffffffffffffffffffffffffffffff16331461016857600080fd5b806101716100bb565b101561017c57600080fd5b60405173ffffffffffffffffffffffffffffffffffffffff83169082156108fc029083906000818181858888f193505050501580156101bf573d6000803e3d6000fd5b505050565b600080604083850312156101d6578182fd5b823573ffffffffffffffffffffffffffffffffffffffff811681146101f9578283fd5b946020939093013593505050565b600060208284031215610218578081fd5b5035919050565b9081526020019056fea26469706673582212202f82872bf167332d7dd6a36fcbf5e279f2437609362ab7ae104cf6605a8cc0d764736f6c63430008000033",
  "immutableReferences": {},
  "source": "pragma solidity ^0.8.0;\n\ncontract Wallet {\n    \n    address payable owner;\n\n    modifier onlyOwner() {\n        require(msg.sender == owner);\n        _;\n    }\n\n    constructor (address payable _owner) {\n        owner = _owner;\n    }\n    \n    function getBalance() public view returns(uint256){\n        return address(this).balance;\n    }\n    \n    function deposit() public payable {\n        \n    }\n\n    function withdraw(uint256 _amount) public payable onlyOwner{\n        require(getBalance() >= _amount);\n        owner.transfer(_amount);\n    }\n\n    function sendMoney(address payable _to, uint256 _amount) public payable onlyOwner{\n        require(getBalance() >= _amount);\n        _to.transfer(_amount);\n    }\n\n}",
  "sourcePath": "/home/conbon/Documents/wallet/contracts/Wallet.sol",
  "compiler": {
    "name": "solc",
    "version": "0.8.0+commit.c7dfd78e.Emscripten.clang"
  },
  "schemaVersion": "3.4.1",
  "updatedAt": "2021-05-27T08:34:02.999Z",
  "networkType": "ethereum",
  "devdoc": {
    "kind": "dev",
    "methods": {},
    "version": 1
  },
  "userdoc": {
    "kind": "user",
    "methods": {},
    "version": 1
  }
}